{
	"data": {
		"bytecode": {
			"linkReferences": {},
			"object": "608060405234801561001057600080fd5b5060ca8061001f6000396000f3fe6080604052348015600f57600080fd5b506004361060285760003560e01c806385ebbdf914602d575b600080fd5b605660048036036020811015604157600080fd5b81019080803590602001909291905050506058565b005b600a8110801560675750600581115b15607657600080819055506092565b6014811015608957600080819055506091565b600080819055505b5b5056fea265627a7a7231582063dfaff92e76ecb6fd2e84584bc71ab918105560cc6454fdee278950735725d264736f6c63430005110032",
			"opcodes": "PUSH1 0x80 PUSH1 0x40 MSTORE CALLVALUE DUP1 ISZERO PUSH2 0x10 JUMPI PUSH1 0x0 DUP1 REVERT JUMPDEST POP PUSH1 0xCA DUP1 PUSH2 0x1F PUSH1 0x0 CODECOPY PUSH1 0x0 RETURN INVALID PUSH1 0x80 PUSH1 0x40 MSTORE CALLVALUE DUP1 ISZERO PUSH1 0xF JUMPI PUSH1 0x0 DUP1 REVERT JUMPDEST POP PUSH1 0x4 CALLDATASIZE LT PUSH1 0x28 JUMPI PUSH1 0x0 CALLDATALOAD PUSH1 0xE0 SHR DUP1 PUSH4 0x85EBBDF9 EQ PUSH1 0x2D JUMPI JUMPDEST PUSH1 0x0 DUP1 REVERT JUMPDEST PUSH1 0x56 PUSH1 0x4 DUP1 CALLDATASIZE SUB PUSH1 0x20 DUP2 LT ISZERO PUSH1 0x41 JUMPI PUSH1 0x0 DUP1 REVERT JUMPDEST DUP2 ADD SWAP1 DUP1 DUP1 CALLDATALOAD SWAP1 PUSH1 0x20 ADD SWAP1 SWAP3 SWAP2 SWAP1 POP POP POP PUSH1 0x58 JUMP JUMPDEST STOP JUMPDEST PUSH1 0xA DUP2 LT DUP1 ISZERO PUSH1 0x67 JUMPI POP PUSH1 0x5 DUP2 GT JUMPDEST ISZERO PUSH1 0x76 JUMPI PUSH1 0x0 DUP1 DUP2 SWAP1 SSTORE POP PUSH1 0x92 JUMP JUMPDEST PUSH1 0x14 DUP2 LT ISZERO PUSH1 0x89 JUMPI PUSH1 0x0 DUP1 DUP2 SWAP1 SSTORE POP PUSH1 0x91 JUMP JUMPDEST PUSH1 0x0 DUP1 DUP2 SWAP1 SSTORE POP JUMPDEST JUMPDEST POP JUMP INVALID LOG2 PUSH6 0x627A7A723158 KECCAK256 PUSH4 0xDFAFF92E PUSH23 0xECB6FD2E84584BC71AB918105560CC6454FDEE27895073 JUMPI 0x25 0xD2 PUSH5 0x736F6C6343 STOP SDIV GT STOP ORIGIN "
		},
		"gasEstimates": {
			"creation": {
				"codeDepositCost": "40400",
				"executionCost": "93",
				"totalCost": "40493"
			},
			"external": {
				"exampleIfElse(uint256)": "5315"
			}
		},
		"methodIdentifiers": {
			"exampleIfElse(uint256)": "85ebbdf9"
		}
	},
	"abi": [
		{
			"constant": false,
			"inputs": [
				{
					"internalType": "uint256",
					"name": "x",
					"type": "uint256"
				}
			],
			"name": "exampleIfElse",
			"outputs": [],
			"payable": false,
			"stateMutability": "nonpayable",
			"type": "function"
		}
	]
}